:10000000000008200502000031020000310200005B
:100010003102000031020000310200003102000014
:100020003102000031020000310200003102000004
:1000300031020000300200005BDA010017DD010030
:100040003128000031020000E90500004D080000E1
:1000500031020000BD2A0000310200003102000020
:1000600031020000310200003102000031020000C4
:10007000310200007508000031020000310200006A
:1000800031020000310200003102000031020000A4
:100090003102000031020000310200003102000094
:1000A0003102000031020000310200003102000084
:1000B000310200003102000031020000650E000034
:1000C0003102000031020000310200003102000064
:1000D0003102000031020000310200003102000054
:1000E0003102000031020000310200003102000044
:1000F0003102000031020000310200003102000034
:100100003102000031020000310200003102000023
:100110003102000031020000310200003102000013
:100120003102000031020000310200003102000003
:1001300031020000310200003102000031020000F3
:1001400031020000310200003102000031020000E3
:1001500010B5054C237833B9044B13B10448AFF301
:1001600000800123237010BD680100200000000002
:10017000906B020008B5034B1BB103490348AFF372
:10018000008008BD000000006C010020906B0200A0
:10019000154B002B08BF134B9D46A3F5803A002159
:1001A0008B460F461348144A121A21F0E7F90F4BF9
:1001B000002B00D098470E4B002B00D09847002012
:1001C000002104000D000D48002802D00C48AFF3B8
:1001D000008021F07BF9200029001EF0A7F821F013
:1001E00061F900BF000008000000082000000000C6
:1001F000000000006801002078D10020000000000D
:1002000000000000064880470649074A074B9A420B
:10021000BEBF51F8040B42F8040BF8E7FFF7B8FF34
:1002200011030000048C0200000000206401002083
:10023000FEE700BF80B582B000AF00F025F878601F
:100240000A4BD3F808311B0AC3F308033B603B6831
:1002500001337A68B2FBF3F37B60054A7B68136075
:100260007B6818460837BD4680BD00BF00400E4081
:100270000C00002080B400AF024B1846BD465DF86C
:10028000047B704700A24A0480B483B000AF164BD1
:10029000D3F8943003F00703032B08D0042B02D0CB
:1002A000022B08D00BE0114B1B687B600BE04FF476
:1002B00000437B6007E00E4B1B687B6003E00D4B47
:1002C0001B687B6000BF084BD3F800311B0A03F0AA
:1002D0001F0301337A68B2FBF3F318460C37BD46AF
:1002E0005DF8047B704700BF00400E40080000200E
:1002F000040000201000002080B400AF034B1B68F6
:100300001846BD465DF8047B704700BF040000201E
:1003100080B400AF074B084A9A60064BD3F8883088
:10032000044A43F47003C2F8883000BFBD465DF84C
:10033000047B704700ED00E00000000080B400AFD7
:100340004FF400431846BD465DF8047B704780B407
:1003500000AF4FF47A731846BD465DF8047B7047D2
:1003600080B400AF034B1B681846BD465DF8047BA4
:10037000704700BF0800002080B584B000AF7860EF
:100380003960214B1B7883F00103DBB2002B01D0D5
:100390001E4B34E07B68002B01D11D4B2FE005F094
:1003A00001FFB8600023FB6022E01A4AFB681B01D2
:1003B00013440C331B7883F00103DBB2002B14D001
:1003C000FA687B681A60134AFB681B0113440C33FC
:1003D00001221A700F4AFB681B01134400221A60A5
:1003E000B86805F0EFFE002309E0FB680133FB600D
:1003F000FB68172BD9DDB86805F0E4FE064B1846FC
:100400001037BD4680BD00BF84010020028000F08F
:10041000018000F088010020048000F080B584B0E5
:1004200000AF0023FB7205F0BDFE78600023FB6087
:100430000DE0144AFB681B0113440C331B78002B9E
:1004400002D00123FB7205E0FB680133FB60FB680F
:10045000172BEEDDFB7A83F00103DBB2002B09D012
:1004600007F0A8F8084B00221A70786805F0AAFE79
:10047000002303E0786805F0A5FE044B184610370A
:10048000BD4680BD8801002084010020058000F069
:1004900080B584B000AF7860164B1B7883F0010301
:1004A000DBB2002B01D0144B1FE07B68172B01D966
:1004B000124B1AE005F076FEF860114A7B681B01CA
:1004C00013440C331B78002B0BD00D4A7B681B01A7
:1004D00013440C3300221A70F86805F073FE0023F1
:1004E00003E0F86805F06EFE064B18461037BD466F
:1004F00080BD00BF84010020028000F0018000F078
:1005000088010020068000F080B584B000AF194B50
:100510001B687B6000233B7105F044FEB860164BFE
:100520001B78002B04D0B86805F04CFE134B1CE080
:10053000114B01221A70B86805F044FE0023FB60DD
:1005400009E00F4AFB681B0113440C3300221A70A8
:10055000FB680133FB60FB68172BF2DD0423FB71A2
:100560003B1D184607F03CF8002318461037BD46DF
:1005700080BD00BFFC29020084010020038000F040
:100580008801002080B582B000AF7860114B1B78E5
:1005900083F00103DBB2002B01D00F4B16E07B6828
:1005A000172B01D90D4B11E00D4A7B681B01134439
:1005B0000C331B7883F00103DBB2002B01D0094B15
:1005C00004E07B68184607F07BF8002318460837DC
:1005D000BD4680BD84010020028000F0018000F053
:1005E00088010020078000F080B586B000AF324B54
:1005F0001B6EFB60304BDB6EFA681340FB60FB68E0
:10060000002B00DAFEE700237B6101233B614CE015
:10061000FA683B691340002B41D0274A3B69936637
:100620007B691B01254A1344BB60BB681B68002B18
:1006300035D0BB689B685A1CBB689A60BB681B6856
:10064000BA689168BA685268786998470346002B7F
:1006500014BF01230023DBB283F00103DBB2FB7183
:10066000FB7903F00103FB71BB685B7B012B16D1A7
:10067000FB79002B13D0124A7B695B01134403F111
:10068000080213796FF3410313710D4A7B695B0113
:10069000134403F1180213796FF3410313717B695B
:1006A00001337B613B695B003B617B69172BAFD9F1
:1006B00000BF1837BD4680BD0020004088010020E3
:1006C0000803002080B483B000AF0346FB7197F9A4
:1006D0000730002B0BDBFB7903F01F02074997F96A
:1006E00007305B09012000FA02F241F8232000BF25
:1006F0000C37BD465DF8047B704700BF00E100E0A9
:1007000080B483B000AF0346FB7197F90730002B2C
:100710000CDBFB7903F01F02074997F907305B09EF
:10072000012000FA02F2603341F8232000BF0C37A9
:10073000BD465DF8047B704700E100E080B483B003
:1007400000AF7860044A7B68C2F8243400BF0C37DD
:10075000BD465DF8047B70470080084080B483B0DC
:1007600000AF074BD3F828347B60054BD3F81C242B
:100770007B68134018460C37BD465DF8047B704714
:100780000080084080B485B000AF78607B68FB6073
:10079000FB6893FAA3F3BB60BB68B3FA83F3DBB2E5
:1007A00018461437BD465DF8047B704780B500AF2E
:1007B0000D20FFF7A5FF0D20FFF784FF0320FFF7B3
:1007C0009FFF0320FFF77EFF00BF80BD80B584B090
:1007D00000AF03463960FB7105F0E4FCF860FB797B
:1007E00005493A6841F82320F86805F0EBFC00BFA2
:1007F0001037BD4680BD00BF0806002080B584B01C
:1008000000AF786019E07868FFF7BCFFF86001225C
:10081000FB6802FA03F3DB431A467B6813407B60F4
:10082000094AFB6852F82330BB60BB68002B04D038
:10083000FB68DAB2BB68104698477B68002BE2D1B0
:1008400000BF1037BD4680BD0806002080B582B0CD
:1008500000AFFFF783FF024645F2555313407B601C
:100860007868FFF76BFF7868FFF7C8FF00BF0837AD
:10087000BD4680BD80B582B000AFFFF76FFF024676
:100880004AF6AA2313407B607868FFF757FF786821
:10089000FFF7B4FF00BF0837BD4680BD80B483B00A
:1008A00000AF7860002318460C37BD465DF8047B26
:1008B000704780B483B000AF7860FEE780B483B047
:1008C00000AF786039603B684FF400525A600023F3
:1008D00018460C37BD465DF8047B704780B400AF06
:1008E00001231846BD465DF8047B704780B483B091
:1008F00000AF7860012318460C37BD465DF8047BD5
:10090000704780B483B000AF786039604FF0FF3338
:1009100018460C37BD465DF8047B704780B485B03F
:1009200000AFF860B9607A60002318461437BD46FE
:100930005DF8047B704780B586B000AFF860B960A1
:100940007A6000237B610FE01DF093FE38613B6904
:10095000B3F1FF3F0ED0BB685A1CBA603A69D2B2FD
:100960001A707B6901337B617B685A1E7A60002BA9
:10097000EAD100E000BF7B69002B02DC4FF0FF33BF
:1009800000E07B6918461837BD4680BD80B485B04D
:1009900000AF78600B4B1B68002B02D1094B0A4A51
:1009A0001A60084B1B68FB60064B1A687B6813448F
:1009B000044A1360FB6818461437BD465DF8047B93
:1009C000704700BF4806002078D1002080B586B06F
:1009D00000AFF860B9607A6000237B6109E0BB6812
:1009E0005A1CBA601B7818461DF035FE7B6901332E
:1009F0007B617A697B689A42F1DB7B68184618371D
:100A0000BD4680BD80B483B000AF0346FB7197F94B
:100A10000730002B0BDBFB7903F01F02074997F926
:100A200007305B09012000FA02F241F8232000BFE1
:100A30000C37BD465DF8047B704700BF00E100E065
:100A400080B483B000AF0346FB7197F90730002BE9
:100A50000CDBFB7903F01F02074997F907305B09AC
:100A6000012000FA02F2603341F8232000BF0C3766
:100A7000BD465DF8047B704700E100E080B584B0BE
:100A800000AF78607B68002B03D07B68B3F5004F24
:100A900004D940F69921074803F0CAFA7B68B3FAF3
:100AA00083F3DBB2C3F11F03FB60FB68184610370A
:100AB000BD4680BD002A020080B582B000AF7860DC
:100AC0007B68022B04D940F29711074803F0B0FA73
:100AD000064A7B6804331B01134404331B68184621
:100AE0000837BD4680BD00BF642A020000200640D2
:100AF00080B582B000AF786039607B68022B04D982
:100B000040F2AB11074803F093FA074A7B680433BD
:100B10001B01134404333A681A6000BF0837BD460E
:100B200080BD00BF642A02000020064080B582B06C
:100B300000AF78607868FFF7BFFF034618460837B4
:100B4000BD4680BD80B582B000AF7860396039683D
:100B50007868FFF7CDFF00BF0837BD4680BD0000B5
:100B600080B400AF034B9B681846BD465DF8047B1C
:100B7000704700BF0020064080B483B000AF7860AB
:100B8000044A7B68136200BF0C37BD465DF8047BE6
:100B9000704700BF0020064080B483B000AF78608B
:100BA000064B5A6A7B68DB43044913404B6200BF23
:100BB0000C37BD465DF8047B704700BF002006403F
:100BC00080B483B000AF7860054B5A6A04497B68F3
:100BD00013434B6200BF0C37BD465DF8047B704782
:100BE0000020064080B483B000AF064B5B6A7B6098
:100BF000044B9A697B68134018460C37BD465DF874
:100C0000047B70470020064080B586B000AF786056
:100C100000237B6100233B61204B1B7883F00103A1
:100C2000DBB2002B01D01E4B33E005F0BBFAF860BD
:100C300002E07B6901337B617B69032B0ADC194984
:100C40007A6913469B001344DB000B441E331B7868
:100C5000002BEED17B69042B02D1134B3B6114E0D6
:100C60007B68002B0FD00F497A6913469B00134411
:100C7000DB000B441E3301221A707A697B681A600C
:100C800000233B6101E0094B3B61F86805F09AFAEB
:100C90003B6918461837BD4680BD00BFFA060020E4
:100CA000061000F050060020011000F0041000F0C3
:100CB00080B584B000AF78607B68032B01D9104BFE
:100CC0001AE005F06FFAF8600E497A6813469B0047
:100CD0001344DB000B441C3300221A7009497A6864
:100CE00013469B001344DB000B441E3300221A7092
:100CF000F86805F067FA002318461037BD4680BD36
:100D0000021000F05006002080B500AF264B1B7883
:100D1000002B01D0002345E00121244803F02EFEE2
:100D20000221234804F004FD0120FFF7A7FE03463B
:100D3000DAB2204B1A7101211F4803F01FFE1D4833
:100D400006F02AFD1D49012006F0E8FC40F2FF7084
:100D5000FFF722FF40F2FF70FFF70EFF184B002253
:100D60009A601F20FFF76CFE1F20FFF74BFE01204B
:100D7000FFF726FFA0220021124820F0FFFB124BB4
:100D800000221A70114B00221A70114B00221A60B7
:100D9000104B00221A60104B00221A60024B0122F5
:100DA0001A700023184680BDFA06002000050A00CC
:100DB0000500240014000020A009140020000020D9
:100DC0000020064050060020F8060020F90600200A
:100DD000F4060020FC0600200007002080B584B047
:100DE00000AF78601A4B1B7883F00103DBB2002B55
:100DF00001D0184B28E07B68032B01D9164B23E068
:100E000005F0D0F9F86015497A6813469B00134441
:100E1000DB000B441E331B7883F00103DBB2002B95
:100E200004D0F86805F0CEF90D4B0DE00B497A6857
:100E300013469B001344DB000B441C3300221A7042
:100E4000F86805F0BFF9002318461037BD4680BD8D
:100E5000FA060020061000F0021000F050060020F4
:100E6000031000F080B586B000AF05F09BF9386143
:100E7000FFF7B8FEF860FB6823F005031846FFF79C
:100E80007BFEFB6803F00403002B30D01C4B0122D7
:100E90001A70FFF765FE78610420FFF77DFE194B9D
:100EA0001B687A69D31ABB60B86800F02FF800F0AD
:100EB00095F9786900F0C4F9FFF752FE7861114B9B
:100EC0001B687A69D31ABB600120FFF72FFE024628
:100ED0000C4B1B68D31A7B600B4B1B78002B03D089
:100EE000BA687B689A42D7D2054B00221A7000F08C
:100EF0001DFA386905F066F900BF1837BD4680BD98
:100F0000F8060020F0060020F9060020F0B587B0B2
:100F100000AF786000237B6156E1AF497A691346E0
:100F20009B001344DB000B441D3300221A70AA49B6
:100F30007A6913469B001344DB000B441C331B7877
:100F4000002B00F03E81A4497A6913469B001344AC
:100F5000DB000B44D3E900347A6811464FF00002FD
:100F6000A24208BF99421AD29B497A6913469B0054
:100F70001344DB000B44D3E900567B684FF00004B8
:100F800029463246C91A62EB0402934C786903463B
:100F90009B000344DB002344C3E9001211E18E49A6
:100FA0007A6913469B001344DB000B441F331B7804
:100FB000002B0AD188497A6913469B001344DB0051
:100FC0000B441C3300221A70E6E07B6819464FF090
:100FD0000002814C786903469B000344DB002344F4
:100FE000D3E900560B4614465B1B64EB0604C7E9C5
:100FF000023479497A6913469B001344DB000B44A1
:101000000833D3E9004574497A6913469B001344B9
:10101000DB000B440833D3E90023D7E902011DF0BC
:1010200099FFA41A65EB030521462A466A4C7869A4
:1010300003469B000344DB002344C3E900126649D6
:101040007A6913469B001344DB000B4410331B6882
:10105000002B50DD60497A6913469B001344DB0086
:101060000B44143319685C487A6913469B00134497
:10107000DB00034410331B68194457487A69134650
:101080009B001344DB0003441433196052497A690E
:1010900013469B001344DB000B4414331B681D2BC9
:1010A0007AD94D497A6913469B001344DB000B44FF
:1010B000D3E90034591C44F10002474C78690346D7
:1010C0009B000344DB002344C3E9001242497A69D0
:1010D00013469B001344DB000B4414331B68A3F13D
:1010E0001E013D487A6913469B001344DB0003440C
:1010F0001433196050E038497A6913469B00134451
:10110000DB000B441433196833487A6913469B009B
:101110001344DB00034410331B68C91A2E487A6954
:1011200013469B001344DB000344143319602A491F
:101130007A6913469B001344DB000B4414331B688D
:101140001D2B29D924497A6913469B001344DB00DF
:101150000B44D3E9003413F1FF3144F1FF321E4C4C
:10116000786903469B000344DB002344C3E9001273
:1011700019497A6913469B001344DB000B4414336E
:101180001B68A3F11E0114487A6913469B0013449F
:10119000DB000344143319600F497A6913469B003E
:1011A0001344DB000B4418331B68002B09D00A4999
:1011B0007A6913469B001344DB000B441D33012264
:1011C0001A707B6901337B617B69032B7FF7A5AEC6
:1011D00000BF1C37BD46F0BD5006002090B583B05F
:1011E00000AF00237B6022E014497A6813469B001D
:1011F0001344DB000B441D331B78002B14D00F4924
:101200007A6813469B001344DB000B4418331C68B8
:1012100078680A497A6813469B001344DB000B4444
:1012200020331B681946A0477B6801337B607B68CD
:10123000032BD9DD00BF0C37BD4690BD5006002002
:1012400090B58BB000AF78604FF0FF334FF0FF34B4
:10125000C7E9063400237B6227E031497A6A1346E6
:101260009B001344DB000B441C331B78002B19D06C
:101270002B497A6A13469B001344DB000B44D3E9E5
:101280000012D7E90634A24208BF99420AD2244983
:101290007A6A13469B001344DB000B44D3E9003405
:1012A000C7E906347B6A01337B627B6A032BD4DD9A
:1012B0001C4B00221A70D7E90634B4F1FF3F08BF77
:1012C000B3F1FF3F27D0D7E90634C7E904346FF004
:1012D0006403FB60FB6819464FF00002D7E9043451
:1012E000A24208BF994201D20B461446C7E9063410
:1012F0000D4A7B6813600420FFF73EFCBA697B68E7
:10130000134419460120FFF71DFC064B01221A70F9
:101310000420FFF755FC00BF2C37BD4690BD00BF31
:1013200050060020F9060020F006002080B500AF2E
:10133000FFF758FC034603F00103002B07D0012000
:10134000FFF71AFC034B1B680133024A136000BF0E
:1013500080BD00BFFC060020B0B58CB000AF786047
:101360003960884B07F10C041D460FCD0FC495E87A
:10137000030084E803007B68002B01D1824B90E1DD
:101380003B68002B01D1814B8BE15822002178680A
:1013900020F0F4F83B681B687D4A93420AD17B68D1
:1013A0007C4ADA647B687C4A5A627B684FF440224C
:1013B0009A6251E03B681B68784A93420AD17B6885
:1013C000774ADA647B68774A5A627B684FF4502226
:1013D0009A6241E03B681B68734A93420AD17B687A
:1013E000724ADA647B68724A5A627B684FF4602200
:1013F0009A6231E03B681B686E4A93420AD17B686F
:101400006D4ADA647B686D4A5A627B684FF47022D9
:101410009A6221E03B681B68694A93420AD17B6863
:10142000684ADA647B68684A5A627B684FF48012C3
:101430009A6211E03B681B68644A93420AD17B6858
:10144000634ADA647B68634A5A627B684FF48812A5
:101450009A6201E04D4B24E17A683B6814461D46D0
:101460000FCD0FC495E8070084E807003B685B7D5B
:10147000012B01D10123BB763B689B7D002B02D160
:101480000023BB8319E03B689B7D012B03D14FF404
:101490000073BB8311E03B689B7D022B03D14FF4AB
:1014A0008073BB8309E03B689B7D032B03D14FF422
:1014B0004073BB8301E0354BF3E03B681B7D012BA0
:1014C00005D100237B764FF47A737B6102E03B68A1
:1014D0009B687B610121404803F050FA01213F489D
:1014E00003F04CFA7B68DB6C0121184603F046FAE6
:1014F0003B68DB68032B03D93B68DB68102B01D901
:10150000224BCEE03B68DB68033BFB62FB6ADBB24D
:101510003B763B681B6807F10C021146184606F043
:10152000E3F93B681B7D002B0BD13B68DB7D002B77
:1015300007D13B681B681A683B681B6842F480321D
:101540001A603B68DB7D002B4AD13B681B689B6FB0
:1015500003F0F8333A681279120213433A68527969
:1015600013433A68927912061A433B68DB791B04ED
:1015700019463B681B680A439A673B681B680F2241
:101580005A6747E02C2B0200012000F0022000F0F7
:10159000000001400072040001000C000004014042
:1015A0000082040001000D000008014000920600C6
:1015B00001000E00000C014000A2040001000F0019
:1015C0000010014000B204000100100000140140AE
:1015D00000C20400010011004041050000550A004E
:1015E0003B681B689B6F23F0072323F007033A68CF
:1015F0001279120213433A6852791A433B689B7975
:101600001B0619463B681B680A439A673B681B68C0
:101610000B225A670121786801F000F8B862BB6AB2
:10162000002B01D0BB6A3CE004F0BCFD78621F4B8C
:101630001B7883F00103DBB2002B08D01B4B012287
:101640001A70786A04F0BEFDFFF75EFB02E0786A6C
:1016500004F0B8FD3B681B7D012B09D17B68543336
:101660001846FFF7D1FA0346002B01D0104B18E0C3
:10167000FEF74AFF7B681C3300211846FEF77CFE0C
:101680000346002B01D00B4B0BE07B68203300217D
:101690001846FEF771FE0346002B01D0054B00E013
:1016A000002318463037BD46B0BD00BF04070020F8
:1016B000042000F0092000F080B582B000AF78600F
:1016C0007B68002B01D11D4B33E07B681B6A1846F9
:1016D000FEF758FF7B68DB691846FEF753FF0021D1
:1016E000786800F09BFF7B681B7D012B09D17B682C
:1016F0005B6D1846FFF772FB7B685B6D1846FFF762
:10170000D7FA7B681B68184606F082F97B68DB6CA9
:101710000021184603F032F97B68DB691846FEF7B2
:10172000B7FE7B681B6A1846FEF7B2FEFEF776FE30
:10173000002318460837BD4680BD00BF012000F0D9
:1017400080B485B000AF786039607B68FB607B68EF
:101750001B689A4A934240F06D81FB681B79002B0D
:1017600025D0FB681B79012B1FD0FB681B79022B4E
:1017700019D0FB681B79032B13D0FB681B79042B52
:101780000DD0FB681B79052B07D0FB681B79062B56
:1017900001D106230CE0FF230AE0022308E0012325
:1017A00006E0042304E0022302E0042300E0042313
:1017B0003A681370FB685B79002B25D0FB685B7976
:1017C000012B1FD0FB685B79022B19D0FB685B797A
:1017D000032B13D0FB685B79042B0DD0FB685B797E
:1017E000052B07D0FB685B79062B01D106230CE0A3
:1017F000FF230AE0022308E0012306E0042304E0BB
:10180000022302E0042300E004233A689370FB689B
:101810009B79002B25D0FB689B79012B1FD0FB689F
:101820009B79022B19D0FB689B79032B13D0FB68A3
:101830009B79042B0DD0FB689B79052B07D0FB68A7
:101840009B79062B01D106230CE0FF230AE000233D
:1018500008E0012306E0022304E0022302E004235F
:1018600000E004233A681371FB68DB79002B25D074
:10187000FB68DB79012B1FD0FB68DB79022B19D0C9
:10188000FB68DB79032B13D0FB68DB79042B0DD0CD
:10189000FB68DB79052B07D0FB68DB79062B01D1D0
:1018A00006230CE0FF230AE0002308E0012306E002
:1018B000022304E0022302E0042300E004233A6848
:1018C0009371FB681B79002B25D0FB681B79012BDA
:1018D0001FD0FB681B79022B19D0FB681B79032BE7
:1018E00013D0FB681B79042B0DD0FB681B79052BEB
:1018F00007D0FB681B79062B01D10C230CE0FF23DA
:101900000AE0002308E0072306E00D2304E00B2390
:1019100002E0072300E00A233A685370FB685B7912
:10192000002B25D0FB685B79012B1FD0FB685B790E
:10193000022B19D0FB685B79032B13D0FB685B7912
:10194000042B0DD0FB685B79052B07D0FB685B7916
:10195000062B01D10D230CE0FF230AE0012308E050
:10196000082306E00C2304E00A2302E0062300E03B
:101970000B233A68D370FB689B79002B28D0FB6857
:101980009B79012B22D0FB689B79022B1CD0FB6832
:101990009B79032B16D0FB689B79042B10D0FB6836
:1019A0009B79052B07D0FB689B79062B01D10E2371
:1019B0000FE0FF230DE00C230BE000BF000001400F
:1019C0000D2306E00F2304E0092302E0052300E0D5
:1019D0000C233A685371FB68DB79002B25D0FB6838
:1019E000DB79012B1FD0FB68DB79022B19D0FB6858
:1019F000DB79032B13D0FB68DB79042B0DD0FB685C
:101A0000DB79052B07D0FB68DB79062B01D10F238F
:101A10000CE0FF230AE00D2308E00E2306E00E236E
:101A200004E0082302E0042300E00D233A68D371A8
:101A300000F0EBBD7B681B68994A934240F06C81D3
:101A4000FB681B79002B25D0FB681B79012B1FD06D
:101A5000FB681B79022B19D0FB681B79032B13D071
:101A6000FB681B79042B0DD0FB681B79052B07D075
:101A7000FB681B79062B01D100230CE0FF230AE051
:101A8000052308E0022306E0052304E0032302E027
:101A9000032300E002233A681370FB685B79002B94
:101AA00025D0FB685B79012B1FD0FB685B79022B8B
:101AB00019D0FB685B79032B13D0FB685B79042B8F
:101AC0000DD0FB685B79052B07D0FB685B79062B93
:101AD00001D100230CE0FF230AE0002308E00223E9
:101AE00006E0052304E0032302E0032300E00223D1
:101AF0003A689370FB689B79002B25D0FB689B7933
:101B0000012B1FD0FB689B79022B19D0FB689B79B6
:101B1000032B13D0FB689B79042B0DD0FB689B79BA
:101B2000052B07D0FB689B79062B01D104230CE021
:101B3000FF230AE0012308E0022306E0022304E079
:101B4000052302E0032300E001233A681371FB68D8
:101B5000DB79002B25D0FB68DB79012B1FD0FB68DC
:101B6000DB79022B19D0FB68DB79032B13D0FB68E0
:101B7000DB79042B0DD0FB68DB79052B07D0FB68E4
:101B8000DB79062B01D101230CE0FF230AE00423BB
:101B900008E0022306E0022304E0052302E0032319
:101BA00000E001233A689371FB681B79002B25D074
:101BB000FB681B79012B1FD0FB681B79022B19D006
:101BC000FB681B79032B13D0FB681B79042B0DD00A
:101BD000FB681B79052B07D0FB681B79062B01D10D
:101BE0000E230CE0FF230AE0022308E0012306E0B5
:101BF000062304E0072302E0002300E000233A6804
:101C00005370FB685B79002B25D0FB685B79012B57
:101C10001FD0FB685B79022B19D0FB685B79032B23
:101C200013D0FB685B79042B0DD0FB685B79052B27
:101C300007D0FB685B79062B01D102230CE0FF2360
:101C40000AE0002308E0022306E0072304E006235D
:101C500002E0012300E001233A68D370FB689B791E
:101C6000002B27D0FB689B79012B21D0FB689B7947
:101C7000022B1BD0FB689B79032B15D0FB689B794B
:101C8000042B0FD0FB689B79052B07D0FB689B7951
:101C9000062B01D105230EE0FF230CE00B230AE005
:101CA00000040140032306E00F2304E0002302E0C8
:101CB000022300E007233A685371FB68DB79002BAD
:101CC00025D0FB68DB79012B1FD0FB68DB79022B69
:101CD00019D0FB68DB79032B13D0FB68DB79042B6D
:101CE0000DD0FB68DB79052B07D0FB68DB79062B71
:101CF00001D102230CE0FF230AE0042308E00023C3
:101D000006E00E2304E0012302E0032300E00823A1
:101D10003A68D37100F079BC7B681B689A4A934299
:101D200040F03C81FB681B79002B1FD0FB681B79BE
:101D3000012B19D0FB681B79022B13D0FB681B7990
:101D4000032B0DD0FB681B79042B07D0FB681B7994
:101D5000052B01D105230AE0FF2308E0052306E057
:101D6000002304E0002302E0012300E002233A689C
:101D70001370FB685B79002B1FD0FB685B79012B2C
:101D800019D0FB685B79022B13D0FB685B79032BBE
:101D90000DD0FB685B79042B07D0FB685B79052BC2
:101DA00001D105230AE0FF2308E0052306E0002314
:101DB00004E0002302E0012300E002233A6893706C
:101DC000FB689B79002B1FD0FB689B79012B19D0F6
:101DD000FB689B79022B13D0FB689B79032B0DD0FA
:101DE000FB689B79042B07D0FB689B79052B01D1FD
:101DF00005230AE0FF2308E0052306E0002304E0B2
:101E0000002302E0012300E002233A681371FB681B
:101E1000DB79002B1FD0FB68DB79012B19D0FB6825
:101E2000DB79022B13D0FB68DB79032B0DD0FB6829
:101E3000DB79042B07D0FB68DB79052B01D1052367
:101E40000AE0FF2308E0052306E0012304E0002365
:101E500002E0012300E002233A689371FB681B79DA
:101E6000002B1FD0FB681B79012B19D0FB681B7955
:101E7000022B13D0FB681B79032B0DD0FB681B7959
:101E8000042B07D0FB681B79052B01D100230AE046
:101E9000FF2308E0062306E00D2304E0072302E009
:101EA000032300E002233A685370FB685B79002B40
:101EB0001FD0FB685B79012B19D0FB685B79022B83
:101EC00013D0FB685B79032B0DD0FB685B79042B87
:101ED00007D0FB685B79052B01D101230AE0FF23C2
:101EE00008E0072306E00E2304E0082302E00423B1
:101EF00000E003233A68D370FB689B79002B1FD066
:101F0000FB689B79012B19D0FB689B79022B13D0BE
:101F1000FB689B79032B0DD0FB689B79042B07D0C2
:101F2000FB689B79052B01D102230AE0FF2308E01F
:101F3000082306E00F2304E0092302E0052300E064
:101F400004233A685371FB68DB79002B22D0FB68CD
:101F5000DB79012B1CD0FB68DB79022B16D0FB68E8
:101F6000DB79032B0DD0FB68DB79042B07D0FB68F2
:101F7000DB79052B01D105230DE0FF230BE00923BD
:101F800009E00B2307E000BF000801400A2302E03C
:101F9000062300E005233A68D37136E37B681B68AB
:101FA0009A4A934240F03C81FB681B79002B1FD07A
:101FB000FB681B79012B19D0FB681B79022B13D00E
:101FC000FB681B79032B0DD0FB681B79042B07D012
:101FD000FB681B79052B01D108230AE0FF2308E0E9
:101FE000062306E0062304E0012302E0042300E0C8
:101FF00000233A681370FB685B79002B1FD0FB68E5
:102000005B79012B19D0FB685B79022B13D0FB683D
:102010005B79032B0DD0FB685B79042B07D0FB6841
:102020005B79052B01D108230AE0FF2308E0062392
:1020300006E0062304E0012302E0042300E000237D
:102040003A689370FB689B79002B1FD0FB689B79E3
:10205000012B19D0FB689B79022B13D0FB689B796D
:10206000032B0DD0FB689B79042B07D0FB689B7971
:10207000052B01D108230AE0FF2308E0062306E030
:10208000062304E0032302E0032300E000233A6870
:102090001371FB68DB79002B1FD0FB68DB79012B08
:1020A00019D0FB68DB79022B13D0FB68DB79032B9B
:1020B0000DD0FB68DB79042B07D0FB68DB79052B9F
:1020C00001D108230AE0FF2308E0062306E00223EB
:1020D00004E0022302E0042300E000233A68937145
:1020E000FB681B79002B1FD0FB681B79012B19D0D3
:1020F000FB681B79022B13D0FB681B79032B0DD0D7
:10210000FB681B79042B07D0FB681B79052B01D1D9
:102110000C230AE0FF2308E0002306E0062304E086
:10212000032302E0062300E000233A685370FB68B3
:102130005B79002B1FD0FB685B79012B19D0FB6802
:102140005B79022B13D0FB685B79032B0DD0FB6806
:102150005B79042B07D0FB685B79052B01D10D233C
:102160000AE0FF2308E0012306E0072304E0072339
:1021700002E0072300E001233A68D370FB689B79F3
:10218000002B1FD0FB689B79012B19D0FB689B7932
:10219000022B13D0FB689B79032B0DD0FB689B7936
:1021A000042B07D0FB689B79052B01D10E230AE095
:1021B000FF2308E0022306E0082304E0042302E0F2
:1021C000072300E002233A685371FB68DB79002B98
:1021D00022D0FB68DB79012B1CD0FB68DB79022B5A
:1021E00016D0FB68DB79032B0DD0FB68DB79042B61
:1021F00007D0FB68DB79052B01D10F230DE0FF230E
:102200000BE0032309E0002307E000BF000C0140BE
:102210000E2302E0042300E003233A68D371F4E1C3
:102220007B681B68954A934240F00981FB681B79E3
:10223000002B19D0FB681B79012B13D0FB681B798D
:10224000022B0DD0FB681B79032B07D0FB681B7991
:10225000042B01D1072308E0FF2306E0082304E054
:10226000082302E0032300E001233A681370FB68AF
:102270005B79002B19D0FB685B79012B13D0FB68CD
:102280005B79022B0DD0FB685B79032B07D0FB68D1
:102290005B79042B01D1072308E0FF2306E0082324
:1022A00004E0082302E0032300E001233A6893706E
:1022B000FB689B79002B19D0FB689B79012B13D00D
:1022C000FB689B79022B0DD0FB689B79032B07D011
:1022D000FB689B79042B01D1072308E0FF2306E06C
:1022E000082304E0082302E0032300E002233A6805
:1022F0001371FB68DB79002B19D0FB68DB79012BAC
:1023000013D0FB68DB79022B0DD0FB68DB79032B44
:1023100007D0FB68DB79042B01D1072308E0FF23FA
:1023200006E0082304E0082302E0032300E0022380
:102330003A689371FB681B79002B19D0FB681B79F5
:10234000012B13D0FB681B79022B0DD0FB681B7986
:10235000032B07D0FB681B79042B01D1042308E071
:10236000FF2306E0062304E0002302E0092300E047
:1023700007233A685370FB685B79002B19D0FB6820
:102380005B79012B13D0FB685B79022B0DD0FB68C6
:102390005B79032B07D0FB685B79042B01D1052304
:1023A00008E0FF2306E0072304E0012302E00A23FC
:1023B00000E008233A68D370FB689B79002B19D0A2
:1023C000FB689B79012B13D0FB689B79022B0DD006
:1023D000FB689B79032B07D0FB689B79042B01D109
:1023E000062308E0FF2306E0082304E0022302E0BE
:1023F0000B2300E004233A685371FB68DB79002B60
:1024000019D0FB68DB79012B13D0FB68DB79022B39
:102410000DD0FB68DB79032B07D0FB68DB79042B3D
:1024200001D1072308E0FF2306E0092304E003238A
:1024300002E00C2300E005233A68D371E5E07B68F5
:102440001B680F4A934240F0DE80FB681B79002B2B
:1024500018D0FB681B79012B0DD0FB681B79022B70
:1024600007D0FB681B79032B01D107230BE0FF2367
:1024700009E0052307E0002305E000BF001001404C
:102480000014014004233A681370FB685B79002B49
:1024900013D0FB685B79012B0DD0FB685B79022BB5
:1024A00007D0FB685B79032B01D1072306E0FF23EC
:1024B00004E0012302E0002300E004233A68937063
:1024C000FB689B79002B13D0FB689B79012B0DD007
:1024D000FB689B79022B07D0FB689B79032B01D10A
:1024E000072306E0FF2304E0052302E0032300E0C6
:1024F00001233A681371FB68DB79002B13D0FB686A
:10250000DB79012B0DD0FB68DB79022B07D0FB6850
:10251000DB79032B01D1072306E0FF2304E0052329
:1025200002E0032300E001233A689371FB681B7902
:10253000002B13D0FB681B79012B0DD0FB681B7996
:10254000022B07D0FB681B79032B01D10A2306E07D
:10255000FF2304E00F2302E0062300E008233A688B
:102560005370FB685B79002B13D0FB685B79012B00
:102570000DD0FB685B79022B07D0FB685B79032BDE
:1025800001D10B2306E0FF2304E0012302E007232F
:1025900000E009233A68D370FB689B79002B13D0C5
:1025A000FB689B79012B0DD0FB689B79022B07D030
:1025B000FB689B79032B01D10C2306E0FF2304E089
:1025C0000D2302E00D2300E00B233A685371FB68F2
:1025D000DB79002B13D0FB68DB79012B0DD0FB6876
:1025E000DB79022B07D0FB68DB79032B01D10D23AC
:1025F00006E0FF2304E00C2302E00E2300E00D239D
:102600003A68D37101E0044B00E000231846143708
:10261000BD465DF8047B7047022000F080B586B0AF
:1026200000AF78600B46FB7007F10C031946786821
:10263000FFF786F878617B69002B01D07B69AAE0FF
:10264000BB7C1A467B68DA63FB7C1A467B681A649B
:10265000FB78002B6BD07B681B7D002B33D1387B44
:102660007B7B19460023042204F04AFEB87BFB7BE7
:1026700019460023012204F043FE7B689B7D002B5A
:1026800003D07B689B7D012B07D1387C7B7C19466E
:102690000023042204F034FE06E0387C7B7C1946DB
:1026A0000123042204F02CFE7B68DB7D002B71D11A
:1026B0007B68DB6BD8B27B681B6C19460123042254
:1026C00004F01EFE66E0387B7B7B19460023012266
:1026D00004F016FEB87BFB7B19460023042204F0AD
:1026E0000FFE7B689B7D002B03D07B689B7D012BBD
:1026F00007D1387C7B7C19460023022204F000FEBF
:1027000006E0387C7B7C19460123022204F0F8FDA8
:102710007B68DB7D002B3DD17B68DB6BD8B27B68AF
:102720001B6C19460123022204F0EAFD32E0387BDB
:102730007B7B19460023022204F0E2FDB87BFB7B81
:1027400019460023022204F0DBFD7B689B7D002BF1
:1027500003D07B689B7D012B07D1387C7B7C19469D
:102760000023022204F0CCFD06E0387C7B7C194675
:102770000123022204F0C4FD7B68DB7D002B09D11C
:102780007B68DB6BD8B27B681B6C19460023002288
:1027900004F0B6FD002318461837BD4680BD000082
:1027A00080B483B000AF7860044A7B68D36200BF16
:1027B0000C37BD465DF8047B704700BF00300E400B
:1027C00080B483B000AF7860064B1A6B7B68DB4344
:1027D000044913400B6300BF0C37BD465DF8047B12
:1027E000704700BF00300E4080B483B000AF786007
:1027F000054B1A6B04497B6813430B6300BF0C370E
:10280000BD465DF8047B704700300E4080B483B055
:1028100000AF064B1B6B7B60044B5A6A7B6813400E
:1028200018460C37BD465DF8047B704700300E40FB
:1028300080B500AF00F002F800BF80BD80B582B067
:1028400000AFFFF7E3FF78607B68002B1CDA224BB8
:102850001B681B68002B12D01F4B1B681B683B605A
:102860001D4B1B680822002118461EF087FE00F051
:10287000F9F803461A463B680021104698474FF086
:102880000040FFF78DFF20E07B6803F08043002BC2
:102890001BD0124B1B681B68002B12D00F4B1B6800
:1028A0001B683B600D4B1B680822002118461EF078
:1028B00065FE00F0D7F803461A463B680121104632
:1028C00098474FF08040FFF76BFF00F031F800BFF2
:1028D0000837BD4680BD00BF5C07002058070020B8
:1028E00080B485B000AF78600F4B1B6819467B68D9
:1028F000DB000E4AA2FB03239B08CB1AFB60FB689C
:1029000013F1800F03DA6FF07F03FB6004E0FB68D4
:102910007F2B01DD7F23FB60FB685BB21846143719
:10292000BD465DF8047B704760070020CDCCCCCC61
:1029300080B582B000AF00237B6024E0444A7B680E
:1029400052F83330002B1BD0424B1B681B68002B06
:1029500006D17B68DB003E4A13443E4A13600FE019
:102960003B4A7B68DB0013441A793A4B1B681B799E
:102970009A4205D97B68DB00354A1344354A136017
:102980007B6801337B607B68042BD7DD00237B6091
:1029900024E0314A7B6852F83330002B1BD02F4B98
:1029A0001B681B68002B06D17B68DB002A4A134496
:1029B0002A4A13600FE0284A7B68DB0013441A7927
:1029C000264B1B681B799A4205D27B68DB00224AA2
:1029D0001344224A13607B6801337B607B68042BBD
:1029E000D7DD1C4B1B681B68002B0FD01C4BDB6911
:1029F00023F0FF03174A126812791146184A0B4355
:102A0000D3614FF08040FFF7EFFE03E04FF08040CE
:102A1000FFF7D6FE114B1B681B68002B10D0104B24
:102A2000DB6923F47F430D4A1268127912021146C2
:102A30000B4A0B43D3614FF00040FFF7D5FE03E094
:102A40004FF00040FFF7BCFE00BF0837BD4680BD19
:102A50000807002058070020300700205C070020EE
:102A600000300E4080B582B000AF064B1B6ADBB26F
:102A70007B607868FFF734FF03465BB2184608377F
:102A8000BD4680BD00300E4080B483B000AF78609A
:102A900039607B683A685A6100BF0C37BD465DF803
:102AA000047B704780B483B000AF78607B68DB68DC
:102AB00018460C37BD465DF8047B704780B582B080
:102AC00000AF0A48FFF7EEFF78607B6803F0100361
:102AD000002B06D010210548FFF7D6FF044B01223A
:102AE0001A7000BF0837BD4680BD00BF008001409E
:102AF0006407002080B485B000AF786039607B68DF
:102B000003F10473DA003B6813449B00FB60FB682D
:102B10001B6818461437BD465DF8047B704780B4C7
:102B200085B000AF786039607B6803F1C063FB60FB
:102B3000FB683A681A6000BF1437BD465DF8047B35
:102B4000704780B485B000AF786039607B6803F16E
:102B50008063FB60FB683A681A6000BF1437BD46AB
:102B60005DF8047B7047000080B582B000AF03467B
:102B70003960FB71FB79002B31D0FB79012B2BD015
:102B8000FB79022B25D0FB79032B1FD0FB79042B7B
:102B900019D0FB79052B13D0FB79062B0DD0FB79CF
:102BA000072B07D0FB79082B02D14FF6FF7318E0F3
:102BB000002316E04FF6FF7313E04FF6FF7310E0AB
:102BC0004FF6FF730DE04FF6FF730AE04FF6FF7309
:102BD00007E04FF6FF7304E04FF6FF7301E04FF696
:102BE000FF733A68134103F00103002B04D140F254
:102BF000DD310C4801F01CFAFA7913465B001344EE
:102C00001B010C3303F1804303F5082301213A68CB
:102C100001FA02F211461846FFF793FF00BF08378A
:102C2000BD4680BD442B020080B582B000AF034694
:102C30003960FB71FB79002B31D0FB79012B2BD054
:102C4000FB79022B25D0FB79032B1FD0FB79042BBA
:102C500019D0FB79052B13D0FB79062B0DD0FB790E
:102C6000072B07D0FB79082B02D14FF6FF7318E032
:102C7000002316E04FF6FF7313E04FF6FF7310E0EA
:102C80004FF6FF730DE04FF6FF730AE04FF6FF7348
:102C900007E04FF6FF7304E04FF6FF7301E04FF6D5
:102CA000FF733A68134103F00103002B04D140F293
:102CB000F7310B4801F0BCF9FA7913465B00134475
:102CC0001B010C3303F1804303F5082339681846D0
:102CD000FFF710FF034618460837BD4680BD00BF0A
:102CE000442B020080B582B000AF03463960FB710F
:102CF000FB79002B31D0FB79012B2BD0FB79022BF8
:102D000025D0FB79032B1FD0FB79042B19D0FB793D
:102D1000052B13D0FB79062B0DD0FB79072B07D0A1
:102D2000FB79082B02D14FF6FF7318E0002316E061
:102D30004FF6FF7313E04FF6FF7310E04FF6FF738B
:102D40000DE04FF6FF730AE04FF6FF7307E04FF612
:102D5000FF7304E04FF6FF7301E04FF6FF733A682C
:102D6000134103F00103002B04D140F20C410C4845
:102D700001F05EF9FA7913465B0013441B010C3332
:102D800003F1804303F5082301213A6801FA02F2B6
:102D900011461846FFF7C3FE00BF0837BD4680BD89
:102DA000442B020090B587B000AF786000237B61B0
:102DB00001233B617B68002B4BDB7B68012B48DCEC
:102DC0000023FB6038E02548FB687A68D900134689
:102DD000DB009B1A9B000B44034404331C781F4800
:102DE000FB687A68D9001346DB009B1A9B000B44F2
:102DF000034408331B6819462046FFF715FF0346B6
:102E0000002B14BF01230023FB7214497A68134678
:102E1000DB009B1A9B000B441B78FA7A9A4201D183
:102E20003B6900E000237A6913447B613B695B00E6
:102E30003B61FB680133FB6008497A681346DB009D
:102E40009B1A9B000B4401331B781A46FB68934284
:102E5000B9DB7B6918461C37BD4690BDA82B020024
:102E600090B585B000AF786039600123BB607B68A6
:102E7000002B65DB7B68012B62DC0023FB6052E0EA
:102E80003A68BB681340BA689A420CBF012300231A
:102E9000DBB218462C497A681346DB009B1A9B006C
:102EA0000B441B7898421CD12748FB687A68D900EC
:102EB0001346DB009B1A9B000B44034404331C782D
:102EC0002148FB687A68D9001346DB009B1A9B00F7
:102ED0000B44034408331B6819462046FFF702FFE2
:102EE0001BE01948FB687A68D9001346DB009B1A7F
:102EF0009B000B44034404331C781348FB687A6836
:102F0000D9001346DB009B1A9B000B440344083393
:102F10001B6819462046FFF727FEBB685B00BB60B5
:102F2000FB680133FB6008497A681346DB009B1A93
:102F30009B000B4401331B781A46FB6893429FDBCE
:102F400000BF1437BD4690BDA82B020090B583B0DA
:102F500000AF0121274801F011FD0121264801F0B1
:102F60000DFD00237B603DE000233B602AE0234809
:102F70003B687A68D9001346DB009B1A9B000B4420
:102F8000034404331C781D483B687A68D900134613
:102F9000DB009B1A9B000B44034408331868174955
:102FA0007A681346DB009B1A9B000B441B7883F066
:102FB0000103DBB204220146204604F0A1F93B687C
:102FC00001333B600D497A681346DB009B1A9B0076
:102FD0000B4401331B781A463B689342C7DB7B687E
:102FE00001337B607B68012BBEDD002318460C3764
:102FF000BD4690BD4041050000550A00A82B0200C7
:1030000080B584B000AF78607B68002B13DB7B68F1
:10301000012B10DC7868FFF7C5FEF860FB68002B19
:1030200002D14FF0FF3300E0002319467868FFF724
:1030300017FF002301E04FF0FF3318461037BD465D
:1030400080BD000080B582B000AFFDF7F3F8786076
:103050000A4B1B68094A43F080731360084B002237
:103060001A60084B1B68074A43F001031360786835
:1030700000F0C2FF00BF0837BD4680BDFCED00E098
:10308000041000E0001000E080B483B000AF054BF6
:103090001B687B607B6818460C37BD465DF8047B77
:1030A000704700BF041000E080B400AF4FF08043D1
:1030B00001225A64154BD3F8B030144A43F001038F
:1030C000C2F8B030114BD3F8E030104A43F0080397
:1030D000C2F8E0300E4B1B680D4A43F48053136076
:1030E0000A4BD3F8E030094A23F00803C2F8E03075
:1030F000064BD3F8B030054A23F00103C2F8B030D4
:1031000000BFBD465DF8047B704700BF00400E4025
:103110003440054080B582B000AF11237B60FFF7DB
:10312000C3FF084803F01AFC0521786802F000FB91
:1031300000220121012002F015FE00BF0837BD4624
:1031400080BD00BFE02B020080B582B000AFFFF76A
:10315000FDFEFDF76FF87860786800F04DFF00BF66
:103160000837BD4680BD80B582B000AFFDF762F87C
:10317000786000F029F902467B68B3FBF2F33B600C
:1031800038681AF0DBFD00BF0837BD4680BD80B44B
:1031900083B000AF78607B6800221A6000BF0C37F4
:1031A000BD465DF8047B704780B582B000AF7860A3
:1031B000104B01221A707B68002B01D100F018FF20
:1031C0007B6800221A707B680B4A5A607B68B722C2
:1031D0009A607B68094ADA6000F0F2F900F0E8F9D9
:1031E000786800F06FFE7B681B78002B0837BD46BF
:1031F00080BD00BF65070020F02B02006C2C020090
:1032000080B400AF034B1B681846BD465DF8047BD5
:10321000704700BF6807002080B485B000AF034648
:103220000A46FB711346BB710023FB73FB79162B17
:1032300063D801A252F823F0953200009B320000BF
:10324000A1320000A1320000A1320000A73200002C
:10325000AD320000AD320000AD320000B3320000EC
:10326000B9320000BF320000C5320000CB3200008E
:10327000CB320000CB320000DD320000E332000030
:10328000E9320000EF320000D1320000D7320000F6
:10329000F53200000123FB7330E00123FB732DE0C6
:1032A0000123FB732AE00123FB7327E00123FB7357
:1032B00024E00123FB7321E00123FB731EE00123C3
:1032C000FB731BE00123FB7318E00123FB7315E084
:1032D0000123FB7312E00123FB730FE00123FB7357
:1032E0000CE00123FB7309E00123FB7306E00123DB
:1032F000FB7303E00123FB7300E000BFFB7B184678
:103300001437BD465DF8047B704700BF80B58CB0B4
:1033100000AFF860B9607A6000237B627B68002BA5
:1033200001D100F065FE274B1B68002B08D178689F
:1033300000F056F87B681B78002B01D07B6A3DE0DB
:10334000204B1B687968184600F01AFAB8627B684F
:103350001B78002B01D07B6A30E0BB6A7A68F96881
:10336000184606F06DFE7B681B78002B17D1BB68F2
:10337000002B09D0BB681B7803F00103002B03D09E
:10338000012387F82F3002E0002387F82F30BB6A33
:1033900097F82F2083F83020BB6A7B620DE0094B41
:1033A0001B68184607F114031A46B96A00F0BAFA06
:1033B0003B7D002B01D000F01BFE7B6A18463037A6
:1033C000BD4680BD6C07002080B400AF034B1B6876
:1033D0001846BD465DF8047B704700BFC407002057
:1033E00080B588B004AF78607B68002B01D100F015
:1033F000FFFD7B6800221A707B685A4A5A607B681E
:1034000040F6B5029A607B68574ADA60786805F042
:1034100005FE7B681B78002B03D0786805F064FEFE
:103420009DE0524B1B68002B40F09580FFF7E8FEB3
:10343000F8607B68B422F9684D4800F033F9024621
:103440004A4B1A607B681B78002B03D0786805F024
:103450004BFE84E0454B1B6819467B6803934FF095
:10346000FF33029300230193042300933423FA686B
:10347000404800F03FF97B681B78002B03D0786848
:1034800005F032FE6BE0394B1B6803F124017B68C9
:1034900003934FF0FF33029300230193042300931F
:1034A0002823FA68344800F025F97B681B78002B44
:1034B00003D0786805F018FE51E02C4B1B6803F12F
:1034C0006C017B6803934FF0FF3302930023019359
:1034D000042300933823FA68284800F00BF97B682E
:1034E0001B78002B03D0786805F0FEFD37E01F4BFA
:1034F0001B6803F190017B6803934FF0FF33029345
:1035000000230193042300930123FA681C4800F070
:10351000F1F87B681B78002B03D0786805F0E4FD98
:103520001DE0124B1B6803F148017B6803934FF0C9
:10353000FF33029300230193042300932423FA68AA
:10354000104800F0D7F87B681B78002B03D0786810
:1035500005F0CAFD03E0786805F0C6FD00BF10372E
:10356000BD4680BD782C0200802D02006C07002033
:10357000182D02002C2D02003C2D02004C2D0200C3
:103580005C2D0200702D020080B584B000AF786021
:1035900002F0EAFDF860054A7B681360F86802F003
:1035A000F3FD00BF1037BD4680BD00BF700700208F
:1035B00080B500AF0120FFF7E7FF00BF80BD00002E
:1035C00080B584B000AF3B461946064800F00CF8C1
:1035D0003B78002B01D000F00BFD00BF1037BD463B
:1035E00080BD00BF2800002080B584B000AF7860A7
:1035F00039603B68002B01D100F0FAFC7B68002B9E
:103600000DD13B680A221A703B68234A5A603B6816
:1036100040F2B7229A603B68204ADA60FEE702F087
:10362000A3FDB8601E4B1B68FB6017E0FA687B685F
:103630009A4210D1B86802F0A7FD3B6815221A70B3
:103640003B68154A5A603B6840F2BE229A603B686C
:10365000124ADA601CE0FB68DB68FB60FB68002B49
:10366000E4D10F4B1A687B68DA600D4A7B681360FF
:10367000B86802F089FD3B6800221A703B68064A70
:103680005A603B6840F2C9229A603B68034ADA609C
:103690001037BD4680BD00BF8C2D0200042E0200F5
:1036A000E849002080B58AB004AFF860B9607A605C
:1036B0003B60BB687B613B68002B01D100F098FC4C
:1036C0007B69002B01D10A4B7B613B68029300238D
:1036D00001930123009304237A687969F86800F064
:1036E0009DF938613B6918461837BD4680BD00BF5B
:1036F0002800002080B58AB004AFF860B9607A6015
:103700003B607B687B61FB6A002B01D100F070FCA1
:10371000BB68002B0DD1FB6A0A221A70FB6A154A9E
:103720005A60FB6A40F212429A60FB6A124ADA60FF
:10373000FEE77B69002B01D1104B7B61BB68002247
:103740001A70BB680022DA61BB6800221A62FB6A49
:103750000393BB6A02937B6A01933B6A00933B68C5
:103760007A69B968F86800F03DFA00BF1837BD46BD
:1037700080BD00BF8C2D0200102E0200280000200A
:1037800090B58BB004AF786039603B68002B01D1F5
:1037900000F02EFC7B68002B0DD13B680A221A70CA
:1037A0003B685E4A5A603B6840F2D5429A603B688B
:1037B0005B4ADA60FEE702F0D7FC78617B685B6900
:1037C000B3F1FF3F17D07B689A697B685B699A42C7
:1037D00011D3786902F0D8FC3B6818221A703B6854
:1037E0004E4A5A603B684FF49C629A603B684C4A70
:1037F000DA6000238DE07B689B695A1C7B689A61C4
:103800007B681B69002B25D07B681B69FB607B688C
:103810001B7803F00203002B02D1FB681B6805E054
:103820007B689B68043BFA6813441B687A681361E1
:10383000786902F0A9FC3B6800221A703B68374A9D
:103840005A603B6840F2EF429A603B68344ADA6063
:10385000FB685EE0786902F097FC00233B617B68BF
:1038600059687B6898687B68DC687B681B7803F024
:103870000103002B03D07B685B681B6900E0012318
:103880003A68029200220192009323460246386968
:1038900000F0C4F8F8603B681B78002B0CD002F0F5
:1038A00063FC78617B689B695A1E7B689A617869C2
:1038B00002F06AFC00232CE07B68DB69002B27D038
:1038C0007B68DC697B6859687B681B6AFA68786882
:1038D000A0470346FB72FB7A012B19D002F044FC8F
:1038E00078617B689B695A1E7B689A61786902F0EF
:1038F0004BFC3B681A221A703B68084A5A603B68C6
:1039000040F219529A603B68054ADA60002300E0F1
:10391000FB6818461C37BD4690BD00BF8C2D0200C9
:10392000242E020080B586B000AFF860B9607A60DE
:103930007B68002B01D100F05BFBFB68002B0DD1F5
:103940007B680A221A707B68324A5A607B6840F2B0
:103950003B529A607B68304ADA60FEE7BB68002B16
:103960000DD17B680A221A707B682A4A5A607B68EC
:1039700040F23C529A607B68274ADA60FEE702F028
:10398000F3FB7861FB689B69002B10D1786902F02A
:10399000FBFB7B6817221A707B681E4A5A607B68A3
:1039A00040F245529A607B681B4ADA602FE0FB6860
:1039B0009B695A1EFB689A61786902F0E5FBFB6817
:1039C0001B7803F00203002B05D0FB689B68043BC7
:1039D000BA68134400E0BB683B6102F0C5FB786144
:1039E000FB681A693B691A60FB68BA681A617869F2
:1039F00002F0CAFB7B6800221A707B68054A5A6095
:103A00007B6840F255529A607B68034ADA60183747
:103A1000BD4680BD8C2D0200382E020080B588B0D6
:103A200002AFF860B9607A603B607B68002B0DD113
:103A3000BB6A08221A70BB6A2A4A5A60BB6A40F203
:103A4000C6629A60BB6A284ADA60FEE73B68002BD0
:103A500005D03B685A1E3B681340002B02D03B68E0
:103A6000002B01D1012300E00023002B0DD1BB6A04
:103A700008221A70BB6A1B4A5A60BB6A40F2CA62CB
:103A80009A60BB6A184ADA60FEE702F06DFB786163
:103A9000BB6A01937B6A00933B6A3A687968B868AD
:103AA00000F024F83861BB6A1B78002B11D07869CC
:103AB00002F06AFBBB6A16221A70BB6A094A5A6096
:103AC000BB6A40F2D5629A60BB6A074ADA6000239B
:103AD00003E0786902F058FB3B6918461837BD4689
:103AE00080BD00BF8C2D02004C2E020080B48BB034
:103AF00000AFF860B9607A603B607B68002B01D052
:103B00007B6800E004233A68934238BF13467B6227
:103B1000FB689B681A467B6A5B421A40FB689B689D
:103B200019467B6A013B0B40002B01D07B6A00E009
:103B3000002313443B623A6ABB681A443B685B4209
:103B40001A40396ABB6819443B68013B0B40002BA3
:103B500001D03B6800E000231344FB61FB685B6815
:103B60001A46FB689B68D31A0133BB61FB689B68EC
:103B70001A46FB699B1A7B61BA697B699A4216D225
:103B80003B6B002B04D07A69BB69D21A3B6B1A607D
:103B90007B6B16221A707B6B104A5A607B6B4FF45A
:103BA000E4629A607B6B0E4ADA60002310E0FA69E7
:103BB000FB689A607B6B00221A707B6B074A5A6025
:103BC0007B6B40F226729A607B6B054ADA603B6A37
:103BD00018462C37BD465DF8047B70478C2D0200DB
:103BE000642E020090B593B004AFF860B9607A60BB
:103BF0003B603B68002B0DD17B6D08221A707B6DFA
:103C00009A4A5A607B6D40F291729A607B6D984A35
:103C1000DA60FEE73B6DB3F1FF3F03D0FA6C3B6D1A
:103C20009A4201D8012300E00023002B0DD17B6DC7
:103C300008221A707B6D8D4A5A607B6D40F2957236
:103C40009A607B6D8A4ADA60FEE7BB6C002B08D075
:103C5000BB6C5A1EBB6C1340002B02D1BB6C032BF8
:103C600002D8BB6C002B01D1012300E00023002B04
:103C70000DD17B6D08221A707B6D7C4A5A607B6D7A
:103C800040F29A729A607B6D794ADA60FEE7BB6C0B
:103C9000002B01D0BB6C00E00423FB61BB681B78E8
:103CA00003F00203002B10D03B6823F003033A68B3
:103CB00002F00302002A01D1002200E00422134492
:103CC0003B633B6B04333B6304E03B68042B38BF2E
:103CD00004233B63FB6C002B00F0CC80BB681B789B
:103CE00003F00103002B02D1FB69BB6206E07B6895
:103CF0001B69FA69934238BF1346BB62BB6A5A42DA
:103D00003B6B1A40BB6A591E3B6B0B40002B01D02A
:103D1000BB6A00E000231344BB61BB69FA6C02FB81
:103D200003F37B623A6BBB69D31A7A6A13447B62F2
:103D3000BB681B7803F00103002B11D07B681B6963
:103D40005A427B6A1A407B681B69591E7B6A0B408A
:103D5000002B02D07B681B6900E0002313447B62C8
:103D60007B6D02930023019301230093BB6A7A6A5F
:103D70007968F868FFF752FE78637B6D1B78002B3B
:103D800040F09880BB687A6B1A61BB681B7803F0BF
:103D90000203002B02D17B6B3B620EE03B6823F0F9
:103DA00003033A6802F00302002A01D1002200E076
:103DB000042213447A6B13443B620123FB622EE01E
:103DC0003B6A796BBA690A441A60BB68DB69002BED
:103DD0001AD0BB68DC69BB681B6A7A6B7968B86803
:103DE000A0470346BB75BB7D012B0DD07B6D1A220E
:103DF0001A707B6D1D4A5A607B6D40F2D7729A60D3
:103E00007B6D1B4ADA6056E03A6ABB6913443B6239
:103E10007A6BBB6913447B63FB6A0133FB62FA6A0A
:103E2000FB6C9A42CCD33B6A00221A60BB68DB6908
:103E3000002B22D0BB68DC69BB681B6A7A6B79688F
:103E4000B868A0470346FB75FB7D012B15D07B6D41
:103E50001A221A707B6D054A5A607B6D40F2E77238
:103E60009A607B6D024ADA6025E000BF8C2D02006B
:103E70007C2E0200BB6800221A61BB687A685A6017
:103E8000BB683A6B9A60BB68FA69DA60BB683A6DE6
:103E90005A61BB6800229A617B6D00221A707B6DAB
:103EA000064A5A607B6D40F2FA729A607B6D044A52
:103EB000DA6000E000BF3C37BD4690BD8C2D0200AB
:103EC0007C2E020090B589B004AF78607B68002B2F
:103ED00001D100F08DF87B6800221A707B683A4AA5
:103EE0005A607B68C4229A607B68384ADA60384B33
:103EF0005B68002B65D000210220FFF78DF9034697
:103F0000FB7300210320FFF787F903461A46FB7B6A
:103F10001340FB7300210420FFF77EF903461A4685
:103F2000FB7B1340FB73FB7B012B0CD07B680622D1
:103F30001A707B68244A5A607B68CA229A607B6840
:103F4000224ADA60FEE7FFF75BF9B8607B682C2253
:103F5000B9682048FFF7A6FB02461F4B1A607B6832
:103F60001B78002B28D11C4B1B68181D184B1B6895
:103F7000174A5268796803910292019304230093CF
:103F80000823BA6801461548FFF7B4FB7B681B7825
:103F9000002B13D1104B1C687A6800211048FFF7E2
:103FA000B5F9A0627B681B78002B09D10A4B1B680E
:103FB0001846FFF7ECF804E000BF02E000BF00E0A5
:103FC00000BF1437BD4690BD982E0200702F02002E
:103FD0003C000020202F020074070020342F020034
:103FE0004C2F020080B500AF00F016F800BF80BD76
:103FF00080B400AFFEE7000080B483B000AF78600B
:10400000044A7B68136000BF0C37BD465DF8047B33
:10401000704700BFECC9002080B500AF034B002201
:104020001A60FFF70FF800BF80BD00BFECC9002089
:1040300080B483B000AF78603960FEE780B487B0A9
:1040400000AFF860B9607A60FB6803F10473DA00CE
:10405000BB6813449B007B617B697A681A6000BF70
:104060001C37BD465DF8047B704780B485B000AF57
:10407000786039607B6803F10473DA003B681344AD
:104080009B00FB60FB681B6818461437BD465DF853
:10409000047B704780B485B000AF786039607B687E
:1040A00003F1C063FB60FB683A681A6000BF143715
:1040B000BD465DF8047B704780B485B000AF786082
:1040C00039607B6803F18063FB60FB683A681A60C3
:1040D00000BF1437BD465DF8047B704780B582B0E1
:1040E00000AF78607B681F2B04D94FF496710548A8
:1040F000FFF79EFF01227B6802FA03F31846083798
:10410000BD4680BD802F020080B584B000AF7860CE
:104110007B68B3F5004F04D340F686310E48FFF7B5
:1041200087FF7B680133B3FA83F3DBB2C3F11F036C
:10413000FB60F868FFF7D2FF0346013B7A689A42BA
:1041400004D040F68C310448FFF772FFFB68184634
:104150001037BD4680BD00BFE82F020080B500AF1C
:1041600000BF12210348FFF780FF0346002BF8D160
:1041700000BF80BD04300E4080B500AFFFF7EEFFFA
:10418000034B5B681B0C03F00303DBB2184680BDD6
:1041900000300E4080B584B000AF78600123FB6032
:1041A0007B68124A934204D80023FB600023BB6063
:1041B00008E07B680E4A934202D80123BB6001E00D
:1041C0000223BB60FA6810210A48FFF737FF094B4A
:1041D000D3F8003123F04072BB681B060549134336
:1041E000C1F8003100BF1037BD4680BD0048E8016E
:1041F0000090D00300400E4080B483B000AF054B68
:104200001B687B607B6818460C37BD465DF8047BF5
:10421000704700BF4400002080B582B000AFFCF7BB
:1042200033F87860064BD3F800311B0A03F01F0304
:1042300001337A6802FB03F318460837BD4680BD98
:1042400000400E4080B582B000AF0F4801F0D6F8B4
:104250000346FB70FB78072B05D0092B07D1FCF731
:1042600013F878600BE0FFF7C7FF786007E00023E2
:104270007B6040F6D2410548FFF7DAFE00BF7B685D
:1042800018460837BD4680BD06000E004C300200BF
:1042900080B584B000AF78607B68002B02D0012B22
:1042A00006D00BE0224801F0A9F80346FB720CE0AF
:1042B000204801F0A3F80346FB7206E040F6F24105
:1042C0001D48FFF7B5FE00232EE0FB7A013B072BCC
:1042D00021D801A252F823F0F94200001743000050
:1042E0001743000007430000174300001743000076
:1042F000FF4200000F4300000023FB6013E0FFF7C4
:104300007BFFF8600FE0FBF7F7FFF8600BE0FFF7CB
:1043100083FFF86007E00023FB6040F60951064880
:10432000FFF786FE00BFFB6818461037BD4680BD0C
:10433000B8003200B90034004C30020080B582B0C1
:1043400000AF1C4801F05AF80346FB70FB78043BB1
:10435000062B21D801A252F823F000BF81430000B0
:10436000794300009943000089430000994300000D
:1043700099430000914300000F4B1B687B6013E0E2
:10438000FBF7BAFF78600FE0FFF736FF78600BE0CD
:104390000A4B1B687B6007E000237B6040F63351CB
:1043A0000748FFF745FE00BF7B6818460837BD4643
:1043B00080BD00BF0A7B36001000002048000020AE
:1043C0004C30020080B584B000AF78607B68002B71
:1043D0001AD11F4801F012F80346FB7200BFFB7AA6
:1043E000043B062B27D801A252F823F01F440000FB
:1043F0001744000037440000274400003744000001
:10440000374400002F44000040F64E511148FFF79A
:104410000FFE002318E0104B1B68FB6013E0FBF756
:104420006BFFF8600FE0FFF7E7FEF8600BE00B4B67
:104430001B68FB6007E00023FB6040F66551054800
:10444000FFF7F6FD00BFFB6818461037BD4680BD7C
:104450000B7C38004C300200100000204800002087
:1044600080B582B000AF244800F0C8FF0346FB705F
:10447000FB78023B092B31D801A252F823F000BF90
:10448000CD440000D5440000B1440000C544000004
:10449000DD440000DD440000DD440000DD44000098
:1044A000A9440000B9440000144B1B687B601DE068
:1044B000FBF722FF786019E0FBF71EFF03465B0065
:1044C0007B6013E00E4B1B687B600FE0FBF748FF3F
:1044D00078600BE0FBF732FF786007E000237B6039
:1044E00040F6BC510748FFF7A3FD00BF7B681846A4
:1044F0000837BD4680BD00BF0C7F3A004800002051
:10450000100000204C30020080B584B000AF78600D
:1045100039604FF080435B6803F04073FB60002319
:10452000BB6012E01C4ABB68DB0013441A793B688D
:10453000DBB29A4206D1184ABB6852F833307A6827
:104540009A4206D9BB680133BB60BB68062BE9D928
:1045500000E000BFBB68072B07D10323FB604FF4CB
:1045600061610E48FFF764FD05E00B4ABB68DB00A4
:1045700013445B79FB60FB681B06FB604FF08043D4
:104580005B6823F040724FF08041FB6813434B603F
:1045900000BF1037BD4680BD603002004C300200C5
:1045A00080B582B000AF4FF080431B6C002B14BF6E
:1045B00001230023FB714FF0804341F671321A64EE
:1045C000FBF758FE034600211846FFF79DFFFB79D5
:1045D000002B03D04FF0804300221A6400BF08373D
:1045E000BD4680BD80B584B000AF786039600C4BAB
:1045F000FB603B68022B01D10A4BFB607A68FB68C9
:104600009A4204D908490948FFF744FD03E00649E6
:104610000648FFF751FD00BF1037BD4680BD00BF03
:1046200080D543020024F400020202000001004091
:1046300080B582B000AF786039607B680B4A9342E6
:1046400009D93B68002B06D14FF480514FF08040D0
:10465000FFF720FD05E04FF480514FF08040FFF759
:104660002BFD00BF0837BD4680BD00BF80F0FA02B9
:1046700080B584B000AF786039604FF080431B6C28
:10468000002B14BF01230023FB734FF0804341F63E
:1046900071321A6439687868FFF736FF39687868CC
:1046A000FFF7A0FF39687868FFF7C2FFFB7B002B9C
:1046B00003D04FF0804300221A6400BF1037BD467C
:1046C00080BD000080B400AF044B5B6A1B0903F09F
:1046D00003031846BD465DF8047B704700400E405A
:1046E00080B483B000AF7860074B5B6A23F0300280
:1046F0007B681B01044913434B6200BF0C37BD4666
:104700005DF8047B704700BF00400E4090B585B057
:1047100000AF78600023BB607B68474A934212D0A9
:10472000454A934203D8454A93420CD005E0444A97
:10473000934208D0434A934205D04FF471614248F6
:10474000FFF776FC00E000BF786800F057FE0346F4
:10475000FB607B68384A934214D0374A934203D8AF
:10476000364A934207D022E0354A934211D0354A67
:10477000934215D01BE0354BD3F8803003F007038C
:10478000FB601AE0314BD3F8843003F00703FB6081
:1047900013E02E4BD3F88C3003F00703FB600CE0E2
:1047A0002A4BD3F8883003F00703FB6005E040F69E
:1047B0003F712548FFF73CFC00BFFB68042B2ED857
:1047C00001A252F823F000BF19480000DD470000A5
:1047D000E5470000F5470000ED470000FBF7AEFDA0
:1047E000B86024E0FBF7BCFDB86020E0FBF7AFFD4C
:1047F000B8601CE0FBF71EFD0446144BD3F80031F3
:104800001B0E03F0030301331846FFF767FC034652
:10481000B4FBF3F3BB600AE00023BB6007E00023B6
:10482000BB6040F697710848FFF702FC00BFBB6809
:1048300018461437BD4690BD0300200002001E003C
:1048400004002200050024004C30020000400E400D
:1048500080B483B000AF78600A4BD3F8443103F0E2
:104860000103002B08D100BF064BD3F840217B6821
:104870001340002BF8D100E000BF0C37BD465DF8B7
:10488000047B704700400E4080B500AF032106480E
:1048900000F00AFB0321054800F006FB0321044851
:1048A00000F002FB00BF80BD404105005041070001
:1048B0006041090080B582B000AFFBF7E5FC3860CD
:1048C000FFF75AFC0346022B1AD13A68224B1344D5
:1048D000224AA2FB0323DB0D7B607B68002B02D006
:1048E0007B68013B7B6079681D4800F0DDFA7968E0
:1048F0001C4800F0D9FA79681B4800F0D5FA27E087
:104900003A681A4B13441A4AA2FB03231B0E7B601E
:104910007B68002B02D07B68013B7B607968104884
:1049200000F0C2FA7968104800F0BEFA3A68114BFC
:104930001344114AA2FB03239B0E7B607B68002B70
:1049400002D07B68013B7B607968064800F0ACFAD6
:1049500000BF0837BD4680BDFF2C31016BCA5F6BBD
:104960004041050050410700604109007FF0FA0214
:10497000893BE655FFA14A04B5FA9BEE80B586B0A7
:1049800000AF78600B46FB7000233B617B681B0A1D
:1049900003F00F03013B0E2B6AD801A252F823F05B
:1049A000DD490000E9490000714A0000714A000039
:1049B000E3490000F5490000FF490000094A0000F2
:1049C000154A00006B4A0000214A0000434A0000DB
:1049D000714A0000EF490000654A0000314B7B61DD
:1049E0004CE0314B7B6149E0304B7B6146E0304B22
:1049F0007B6143E02F4B7B6101233B613EE02E4B0B
:104A00007B6110233B6139E02C4B7B614FF4807359
:104A10003B6133E02A4B7B614FF480333B612DE0F7
:104A2000284B7B61FB78002B14BF01230023DBB2F2
:104A300083F00103DBB2FB70FB7803F00103FB7032
:104A40001CE0214B7B61FB78002B14BF012300236A
:104A5000DBB283F00103DBB2FB70FB7803F00103F0
:104A6000FB700BE0194B7B6108E0194B7B6105E0A3
:104A700041F29B311748FFF7DBFA10E07B681B0B14
:104A800003F01F03FB603B69002B02D03869FFF77E
:104A9000DFFEFB781A46F9687869FFF7CFFA183716
:104AA000BD4680BD00400E40B0400E40C0400E40AC
:104AB000C4400E40E0400E40E8400E40EC400E4046
:104AC000F0400E4060410E4064410E40F0410E4007
:104AD00050410E404C30020080B584B000AF786089
:104AE0007B6803F47813B3F5D01F00F04D81B3F564
:104AF000D01F3CD8B3F5402F00F0C980B3F5402F4C
:104B000018D8B3F5802F77D0B3F5802F06D8002BB7
:104B10006ED0B3F5003F00F0AB80ACE1B3F5002FF1
:104B200000F08880B3F5202F00F09380B3F5C02FFC
:104B300071D0A0E1B3F5901F00F0BD80B3F5901FD8
:104B400008D8B3F5602F00F06281B3F5801F00F044
:104B5000628190E1B3F5B01F00F0CA80B3F5C01FC9
:104B600000F0D880B3F5A01F00F0B48083E1B3F566
:104B7000381F00F0F580B3F5381F1CD8B3F5001FBF
:104B800000F0FD80B3F5001F08D8B3F5E01F00F07A
:104B90000D81B3F5F01F00F089806CE1B3F5201FA3
:104BA00000F02B81B3F5281F00F0C780B3F5101F6C
:104BB00000F028815FE1B3F5501F00F03F81B3F5AD
:104BC000501F08D8B3F5401F00F00381B3F5481F0C
:104BD00000F025814FE1B3F5601F00F04381B3F58C
:104BE000681F00F04481B3F5581F00F0378142E19F
:104BF000FBF74AFBF86046E1FBF746FBF860A44B85
:104C0000D3F80C311B0AC3F308030133FA68B2FB73
:104C1000F3F3FB6037E1FBF737FBF8609C4BD3F80D
:104C200018311B0AC3F308030133FA68B2FBF3F32C
:104C3000FB6028E1FBF728FBF860954BD3F81C31AB
:104C40001B0AC3F308030133FA68B2FBF3F3FB60FA
:104C500019E1FBF719FBF8608D4BD3F804311B0AFF
:104C6000C3F308030133FA68B2FBF3F3FB600AE114
:104C7000FBF70AFBF860864BD3F808311B0AC3F335
:104C800008030133FA68B2FBF3F3FB60FBE0FBF7C8
:104C9000FBFAF8607E4BD3F814311B0A03F01F03B4
:104CA0000133FA68B2FBF3F3FB60ECE07948FFF7FD
:104CB0002DFDF860E7E07748FFF728FDF860744BBA
:104CC000D3F820311B0C03F00F03FA6822FA03F328
:104CD000FB60D8E07048FFF719FDF8606C4BD3F823
:104CE000303103F00303FA6822FA03F3FB60CAE0F1
:104CF0006848FFF70BFDF860654BD3F8203103F0EF
:104D00000F031846FFF7EAF90246FB68B3FBF2F31C
:104D1000FB60B8E05F48FFF7F9FCF8605C4BD3F844
:104D200020311B0903F00F031846FFF7D7F902469D
:104D3000FB68B3FBF2F3FB60A5E05648FFF7E6FC27
:104D4000F860534BD3F820311B0B03F007031846D0
:104D5000FFF7C4F90246FB68B3FBF2F3FB6092E095
:104D60004C48FFF7D3FCF860494BD3F820311B0ABD
:104D700003F00303FA6822FA03F3FB6083E0474879
:104D8000FFF7C4FCF8607EE04448FFF7BFFCF86022
:104D90003F4BD3F8283103F003031846FFF79EF981
:104DA0000246FB68B3FBF2F3FB606CE03B48FFF7A5
:104DB000ADFCF860364BD3F828311B0903F0030330
:104DC0001846FFF78BF90246FB68B3FBF2F3FB6072
:104DD00059E03248FFF79AFCF8602D4BD3F82831A0
:104DE0001B0B03F0030304331846FFF777F9024661
:104DF000FB68B3FBF2F3FB6045E02948FFF786FC54
:104E0000F86040E02448FFF781FCF8603BE0FFF7E2
:104E100019FAF86037E0FFF7EFF9F86033E00020A7
:104E2000FFF736FAF8601A4BD3F85C3103F003034E
:104E30000133FA68B2FBF3F3FB6024E00120FFF7D3
:104E400027FAF860124BD3F85C311B0C03F0030314
:104E50000133FA68B2FBF3F3FB6014E0FFF76EFA7C
:104E6000F86010E00020FFF7ADFAF8600BE0FFF704
:104E7000F7FAF86007E00023FB6041F2C1410948FE
:104E8000FFF7D6F800BFFB6818461037BD4680BD57
:104E900000400E4002001E00050024000300200018
:104EA000040022004C30020080B584B000AF78606E
:104EB00039607B681B0903F00F03FB60FB68013B53
:104EC0000B2B00F2808201A252F823F0FD4E00006D
:104ED000594F0000C7530000814F0000AF4F000042
:104EE000DD4F00000B500000655000001D52000017
:104EF000E95200002D530000995300003B681F2B1E
:104F000004D941F2B451BA48FFF792F8FFF748FBD1
:104F1000B848FFF73FF9FFF7B7FCB74BD3F80031BC
:104F200023F4F8523B681B02B3491343C1F8003124
:104F3000FBF780F9B860FFF71FF903461946B86818
:104F4000FFF796FBAD48FFF7C7FD03461846FFF78E
:104F500021F9FFF7AFFC3CE23B681F2B04D941F27B
:104F6000CA51A348FFF764F8A34BD3F8143123F4D4
:104F7000F8523B681B02A0491343C1F8143128E2E0
:104F80003B68B3F5007F04D341F2D1519848FFF755
:104F90004FF8994BD3F80C3123F4FF3323F480738B
:104FA0003A68120294491343C1F80C3111E23B688C
:104FB000B3F5007F04D341F2D8518D48FFF738F89C
:104FC0008D4BD3F8183123F4FF3323F480733A6800
:104FD000120289491343C1F81831FAE13B68B3F56D
:104FE000007F04D34FF4AF518148FFF721F8824B83
:104FF000D3F81C3123F4FF3323F480733A68120290
:105000007D491343C1F81C31E3E13B68B3F5007FF0
:1050100004D341F2E7517648FFF70AF8FFF7C0FAE8
:105020007448FFF7B7F8744BD3F8083123F4FF3313
:1050300023F480733A6812026F491343C1F80831B0
:10504000FBF7F8F8B860FFF797F803461946B86819
:10505000FFF70EFB6948FFF73FFD03461846FFF7D1
:1050600099F8B6E17B68664A934266D0644A9342F7
:1050700009D8644A93422ED0634A934242D0634A8D
:1050800093420CD0ACE0624A934200F08D80614ABA
:1050900093426ED0604A934200F08680A0E03B6865
:1050A000B3F5004F04D941F2FB515148FEF7C0FF60
:1050B0003868FFF729F838600420FFF7C9FB4E4B2A
:1050C000D3F8203123F470223B681B044A49134370
:1050D000C1F820318AE03B68022B04D941F20C610F
:1050E0004348FEF7A5FF4FF48020FFF7B1FB424B8A
:1050F000D3F8303123F003023F493B681343C1F832
:10510000303173E03B68B3F5004F04D941F22961B7
:105110003748FEF78DFF3868FEF7F6FF3860042049
:10512000FFF796FB344BD3F8203123F00F023249BE
:105130003B681343C1F8203158E03B68B3F5004F9A
:1051400004D941F238612A48FEF772FF3868FEF749
:10515000DBFF38600420FFF77BFB274BD3F82031BF
:1051600023F0F0023B681B0123491343C1F82031AF
:105170003CE03B68082B04D941F247611C48FEF72C
:1051800057FF3868FEF7C0FF38600420FFF760FB68
:10519000194BD3F8203123F440723B681B021649A7
:1051A0001343C1F8203121E03B68B3F5004F04D927
:1051B00041F257610E48FEF73BFF3868FEF7A4FF47
:1051C00038600420FFF744FB0B4BD3F8203123F465
:1051D000E0423B681B0308491343C1F8203105E056
:1051E00041F265610248FEF723FF00BFF1E000BF16
:1051F0004C3002000148E80100400E4000050A0062
:1052000080161800A00914008006160080461200BF
:1052100000362C0080262E0080002A007B686F4A12
:1052200093421FD06E4A934237D06E4A934254D174
:105230003B68082B04D941F26E616B48FEF7F8FE1B
:105240003868FEF761FF38604020FFF701FB674BCD
:10525000D3F8283123F0030264493B681343C1F8B3
:10526000283140E03B68082B04D941F27D615E485B
:10527000FEF7DEFE3868FEF747FF38604020FFF794
:10528000E7FA5A4BD3F8283123F030023B681B0170
:1052900056491343C1F8283125E03B687F2B02D8DB
:1052A0003B680E2B04D841F28C614F48FEF7C0FEDC
:1052B0003868FEF729FF0346043B3B604020FFF7B8
:1052C000C7FA4A4BD3F8283123F440523B681B03FA
:1052D00046491343C1F8283105E041F29B61424839
:1052E000FEF7A6FE00BF74E07B68414A934216D1E8
:1052F0003B68022B04D941F2A5613B48FEF798FEBA
:105300004FF48020FFF7A4FA384BD3F8303123F064
:10531000030236493B681343C1F8303105E041F2DE
:10532000B5613148FEF784FE00BF52E07B68314A28
:10533000934203D0304A934213D026E03B68032BBC
:1053400004D94FF4B6512848FEF772FE274BD3F824
:105350005C3123F0030225493B681343C1F85C31FB
:1053600019E03B68032B04D941F2C8611E48FEF7DF
:105370005FFE1E4BD3F85C3123F440323B681B04C4
:105380001A491343C1F85C3105E041F2CE61164879
:10539000FEF74EFE00BF1CE03B68B3F5007F04D370
:1053A00041F2D6611048FEF743FE104BD3F80431AA
:1053B00023F4FF3323F480733A6812020B4913433A
:1053C000C1F8043105E041F2DD610748FEF730FE27
:1053D00000BF00BF1037BD4680BD00BF90171C0046
:1053E0009037300090071A004C30020000400E4009
:1053F000A0091400B8003200B900340080B584B0B0
:1054000000AF78600123FB737B6803F00F03BB6080
:10541000BB68013B0B2B00F2748101A252F823F010
:1054200051540000AD540000DD54000055550000FB
:10543000255500008555000003570000A9550000C0
:10544000EB5500002F5600006F560000AF560000CD
:10545000B54BD3F8943003F00703023B052B21D85A
:1054600001A252F823F000BF8D54000087540000C1
:1054700081540000935400009F5400009954000090
:105480000223FB7311E00323FB730EE00423FB7381
:105490000BE00D23FB7308E00E23FB7305E00A23EA
:1054A000FB7302E00523FB7300BF37E19E4BD3F88B
:1054B000803003F00703022B06D0042B07D0012B0A
:1054C00008D10323FB7308E00223FB7305E00C23E0
:1054D000FB7302E00123FB7300BF1FE1924BD3F883
:1054E000843003F00703013B032B17D801A252F8C5
:1054F00023F000BF055500000B55000017550000B4
:10550000115500000323FB730BE00223FB7308E03B
:105510000C23FB7305E00623FB7302E00123FB73FE
:1055200000BFFBE0804BD3F8883003F00703022B69
:1055300006D0042B07D0012B08D10323FB7308E00E
:105540000223FB7305E00C23FB7302E00123FB73D2
:1055500000BFE3E0744BD3F88C3003F00703022B59
:1055600006D0042B07D0012B08D10323FB7308E0DE
:105570000223FB7305E00C23FB7302E00123FB73A2
:1055800000BFCBE0684B1B6F03F00303002B04D07C
:10559000012B05D10923FB7305E00723FB7302E010
:1055A0000123FB7300BFB9E05F4BD3F85C3103F01C
:1055B0003003102B0CD0102B02D8002B05D010E09C
:1055C000202B08D0302B09D00BE00123FB730BE01C
:1055D0000723FB7308E00423FB7305E00823FB7338
:1055E00002E00123FB7300BF98E04F4BD3F85C311E
:1055F00003F44013B3F5801F0FD0B3F5801F02D81A
:10560000002B07D08AE0B3F5001F09D0B3F5401F87
:1056100009D083E00123FB7308E00723FB7305E057
:105620000423FB7302E00823FB7300BF76E03E4BCC
:10563000D3F8603103F00303032B6AD801A252F8B8
:1056400023F000BF555600005B5600006156000075
:10565000675600000523FB7308E00423FB7305E095
:105660000723FB7302E00A23FB7300BF51E02E4BBC
:10567000D3F8643103F00303032B4CD801A252F892
:1056800023F000BF955600009B560000A156000075
:10569000A75600000523FB7308E00423FB7305E015
:1056A0000723FB7302E00A23FB7300BF33E01E4BAA
:1056B000D3F8F03103F00703052B2ED801A252F8DE
:1056C00023F000BFDD560000E3560000E95600005D
:1056D000EF560000F5560000FB5600000A23FB734E
:1056E0000EE00423FB730BE00B23FB7308E00523A0
:1056F000FB7305E00223FB7302E00323FB7300BF8F
:105700000BE00023FB7341F6E8010848FEF790FC2C
:1057100004E000BF02E000BF00E000BFFB7B1846D2
:105720001037BD4680BD00BF00400E404C30020027
:1057300080B58AB000AF78600B46FB7003237B62B4
:10574000032387F823300023BB6100237B617B6840
:10575000112B19D1FB78042B03D1FAF7CDFD786119
:105760000BE0FB78052B08D100F0F0FA0246BF4BA6
:105770009A4202D900F0EAFA78617B69002B03D0E3
:105780000021786900F0BCFD7B6803F00F033B61EA
:105790003B69013B0B2B00F2C98201A252F823F0B6
:1057A000D1570000F1580000415900000559000090
:1057B00023590000E95900002D5D0000135A000034
:1057C000B95A0000395B0000C75B0000535C000061
:1057D000FB78023B0C2B53D801A252F823F000BFF8
:1057E00015580000215800002D5800003F580000B7
:1057F0008158000081580000815800008158000045
:105800006958000081580000755800005158000088
:105810005D58000004237B62002387F8233035E0C5
:1058200003237B62012387F823302FE002237B626E
:10583000022387F823308E48FEF7ACFC26E00123D4
:105840007B62032387F823308948FEF7A3FC1DE021
:1058500005237B62032387F8233017E007237B624D
:10586000072387F8233011E006237B62052387F89E
:1058700023300BE041F6A9117E48FEF7D9FB5BE22D
:1058800041F6AE117B48FEF7D3FB55E297F8233083
:10589000072B06D097F8233001220121184600F08B
:1058A00061FAFEF77DFEFEF7EFFF7B69002B01D06A
:1058B000FEF754FC704A7B6A53677048FFF70CF997
:1058C00003461846FEF766FCFAF7B4FCF860FEF7EC
:1058D00053FC03461946F868FEF7CAFE7B69002BA5
:1058E00003D10121002000F00BFDFEF7E3FF23E2CE
:1058F000634BBB61FB78062B04D141F6EA115D488E
:10590000FEF796FBBB69002B01D0BB6900E05D4B45
:10591000BB61FB78062B04D141F6F4115548FEF724
:1059200087FBBB69002B01D0BB6900E0564BBB6114
:10593000FB78062B04D141F6FE114E48FEF778FBAA
:10594000BB69002B01D0BB6900E0504BBB61FB7809
:10595000013B0B2B3ED801A252F823F08D590000D9
:1059600093590000A3590000D5590000D5590000F3
:10597000B3590000D5590000D5590000D559000091
:10598000D5590000D5590000CF5900000023FB6114
:1059900026E001220121002000F0E4F90223FB614E
:1059A0001EE001220121012000F0DCF90123FB614E
:1059B00016E0FAF73FFC03461846FEF7EBFB012220
:1059C00000213348FEF73AFB0323FB6108E0042380
:1059D000FB6105E041F62A212648FEF729FBABE1F1
:1059E000BB69FA691A60A7E1FB78072B02D0092B83
:1059F00004D007E0204B00221A6709E01E4B012269
:105A00001A6705E041F6B4211A48FEF711FB93E14D
:105A100092E1FB78013B072B3CD801A252F823F01E
:105A2000415A0000955A0000955A0000575A00004C
:105A3000955A0000955A0000475A0000675A000026
:105A40000023FB612CE001220121042000F08AF9EF
:105A50000123FB6124E001220121022000F082F9F0
:105A60000223FB611CE00323FB6119E0002D3101DF
:105A70000148E8014C30020000400E4000050A00D9
:105A800080400E408C400E4088400E4084400E40C6
:105A9000B0400E4041F61231A948FEF7C9FA4BE179
:105AA000A84BD3F85C3123F03002FB691B01A549F8
:105AB0001343C1F85C313FE1FB78013B072B29D848
:105AC00001A252F823F000BFE95A0000155B000064
:105AD000155B0000FF5A0000155B0000155B00001D
